:020000021000EC
:1090000000600020759301005D9301005F930100F3
:10901000619301006393010065930100000000006B
:109020000000000000000000000000006793010045
:1090300069930100000000006B9301006D93010033
:1090400095B401006F93010015B901006F93010001
:109050006F9301000000000091B701006F930100C1
:109060006F9301006F9301006F9301006F930100F4
:109070006F9301006F9301006F9301006F930100E4
:109080006F9301003DA701006F9301006F930100F2
:109090006F9301006F93010009D501006F930100E8
:1090A0006F9301006F9301000000000000000000BA
:1090B0006F9301006F9301000000000000000000AA
:1090C00000000000000000000000000000000000A0
:1090D0000000000000000000000000000000000090
:1090E0000000000000000000000000000000000080
:1090F0000000000000000000000000000000000070
:10910000000000000000000000000000000000005F
:10911000000000000000000000000000000000004F
:10912000000000000000000000000000000000003F
:10913000000000000000000000000000000000002F
:10914000000000000000000000000000000000001F
:10915000000000000000000000000000000000000F
:1091600000000000000000000000000000000000FF
:1091700000000000000000000000000000000000EF
:1091800000000000000000000000000000000000DF
:1091900000000000000000000000000000000000CF
:1091A00000000000000000000000000000000000BF
:1091B00000000000000000000000000000000000AF
:1091C000000000000000000000000000000000009F
:1091D000000000000000000000000000000000008F
:1091E000000000000000000000000000000000007F
:1091F000000000000000000000000000000000006F
:10920000354936480A1A02D0072291438D4634491F
:1092100034480A1A06D00722914381F309880222B2
:1092200082F3148830483149314A00F044F831481B
:109230003149324A00F03FF831483249324A00F0B1
:109240003AF832483249334A00F035F83248334967
:10925000334A00F030F833483349344A00F02BF8F1
:1092600033483449344A00F026F83448344900225F
:1092700000F02CF833483449002200F027F8334836
:109280003349091A082902DB002202604160314A91
:1092900090471F481F49884205D00268043003B434
:1092A000904703BCF7E700208646EC4600200021EB
:1092B000294A9047FEE7884207D0521A05D0037822
:1092C00001300B700131013AF9D17047884202D068
:1092D00002700130FAE7704700600020005800205B
:1092E000006000200060002018E70100E01A002064
:1092F000381B0020BC930100BC9301006ED9010013
:1093000018E70100E01A0020E01A00205CDA0100F2
:109310005CDA01005CDA01005CDA01005CDA010071
:109320005CDA01005CDA01005CDA010016E701009A
:1093300070E70100381B0020381B0020381B00207C
:10934000282400202824002028240020282400206D
:10935000282C00208B9301003DC40100FEE7FEE7AE
:10936000FEE7FEE7FEE7FEE7FEE7FEE7FEE7FEE7D5
:1093700000F002B8FFF7FCBF0B484FF0070188432D
:1093800085460A488047FFF73BBF094809490A4A12
:10939000884207D0521A05D0037801300B70013192
:1093A000013AF9D1704700000060002015B00100BB
:0C93B0005CDA0100E01A0020E01A002046
:1093BC00F0B595B01D46164608460C4601F06AFD00
:1093CC001A9B0D93CDE9086500252B46082205A9AB
:1093DC0020460A958DF82C500C9501F078FD079BD2
:1093EC000293069B03939DF814308DF8115003F0F3
:1093FC000302012A1DD1BDF81420059DC3F3C2033D
:10940C00C2F383168DF81030B20008230EA9204643
:10941C0001F05DFDC5F3952508AB0093324602AB18
:10942C000EA9284600F0D0FB204601F037FD15B000
:10943C00F0BD022AF8D1BDF81650C3F3C203C5F330
:10944C0089158DF810300827082D2E4628BF0826C0
:10945C003B4632460EA9204601F039FDAD1B08AB48
:10946C0002AA31460EA8374400F012FC002DEBD1B5
:10947C00DAE70000014B01221A707047791B0020BB
:10948C007047000070B5124D06460FCD88B06C4683
:10949C000FC495E80F00002E84E80F004FF0FF3347
:1094AC004FF00602CDE90023CDE90233094A0A4800
:1094BC004FF0EB7308BF00226946069301F07CFF66
:1094CC0008B100F0D7FD054B1E7008B070BD00BF91
:1094DC005CDA010081940100E01A0020381B0020A6
:1094EC0007B5044B0093044A4023FFF761FF03B018
:1094FC005DF804FB09950100391B002038B50D4BB4
:10950C000D4D002018700D4804782D5DD2B21C460C
:10951C0065B1043002F04EFE08B100F0ABFD084B13
:10952C001A7812B12378002BFBD038BD0C3002F026
:10953C0019FCF1E7791B002018220020E01A00200A
:10954C00381B002008B50848084A0378D35C3BB1A7
:10955C00043002F0B9FDBDE808400020FFF792BFCF
:10956C000C3002F09DFBF6E7E01A002018220020D8
:10957C000120FFF787BF000008B5FFF7F9FF04488B
:10958C00042100F08FFA034B01225A7108BD00BF71
:10959C004CDA0100F41A00200378024613F00400A0
:1095AC0006D003F00300012803D0022809D00120C3
:1095BC0070470B6812880233C2F3831213440B609A
:1095CC0070470B685288023303EB92130B60EEE783
:1095DC002DE9F04F87B000230446861C0DF10700DF
:1095EC000F4615468DF8073000F034FF45480168EA
:1095FC003960D0E90132134401335B1A824600F220
:10960C001C4700F5836900F21448B3421CD30020B8
:10961C00002D73D004F00F039B0143F0050363F39B
:10962C000F00DAF80020DAF8083013400333164440
:10963C004AF823009DF80700CAF8006000F02EFFDE
:10964C00012007B0BDE8F08F0121384601F04DF93B
:10965C00484601F062F9404601F05FF9DAF804007F
:10966C00DAF808B0029000EA0B0003300AEB800035
:10967C0002A9FFF791FF029B50BB0BEA03020AEB16
:10968C00820203F1020CD2680392013303EA0B0B42
:10969C000AEB8B0B02F00302012ADBF80C10CDF85D
:1096AC0008C023D0022A16D08346404601F038F970
:1096BC0010B1029BCAF804305946384601F015F92E
:1096CC00DAE901231344DAF8002001339B1A9CE7F2
:1096DC000BEA0300C9E7BDF80E30C3F3891303335B
:1096EC004FEA114B0CEB93030293DEE7BDF80C3001
:1096FC00C3F383134FEA114B6344F5E7A40544F01D
:10970C0006008EE74C1C00200B4B0C48FF2210B5BA
:10971C009A600022C3F81824C3E90022C3F8142469
:10972C0083F8202401F06FFB044610B9044801F0C3
:10973C00FDFB204610BD00BF4C1C0020C0D9010011
:10974C00B0DA010030B50A4C71B10A4A0A49121B51
:10975C00D20800239A4201D1002030BD31F82350A9
:10976C00854202D00133F5E7034654F83300F4E7A1
:10977C00D4D901004CDA0100E01A0020094B013960
:10978C0003EBC000032909D8DFE801F00A02040644
:10979C00042070470079704740797047002070476B
:1097AC0002207047D4D90100034BD3E90030C31A0F
:1097BC0058425841704700BF4C1C00202DE9F04323
:1097CC0087B0FFF7F1FF0646002840F0F9807D4D89
:1097DC00C5F81804BFF34F8F6B68AC680293234035
:1097EC00033305EB830002A9FFF7D6FE029B18B1E9
:1097FC00D5F81824002A5FD004EA0302991C01331F
:10980C0005EB8202234005EB8303D268DB680493EB
:10981C0002F00303022B0392029160D1BDF80E30CB
:10982C006948C3F38917502FB84628BF4FF050082A
:10983C0068F38F1308F10801ADF80E3001F0FBFA54
:10984C000646002800F0A78001F024FB0023082224
:10985C0003A9304601F031FB029924EA01020132DE
:10986C00B8EB820F4FEA820332D95FFA88F85BB308
:10987C002140DCB2A8EB040803315FFA88F9A0465A
:10988C00524C05EB810108234246304601F015FB92
:10989C0034B108F108034A462146304601F00DFB6D
:1098AC00029B033703EB97070297D5F81834002B6C
:1098BC0049D1D5F8104459E02A689A428FD86A6089
:1098CC00304607B0BDE8F08340491C469946DAE7BC
:1098DC000C40E11C0823424605EB8101DDE7012B1E
:1098EC0059D1BDF80C303848C3F38311062928BF71
:1098FC00062161F3891302318900ADF80C3001F0B7
:10990C009AFA0646002846D001F0C4FA0023082231
:10991C0003A9304601F0D1FA0027BDF80C20C2F3A0
:10992C008312BB00974203F10803BED202994A1C72
:10993C0021400331029205EB81010422304601F0F3
:10994C00BCFA0137E9E7304601F0A8FAFFF72CFF23
:10995C0080F00106F6B2B3E7E3685B7923B12368C4
:10996C0031461B6820469847E3681C68002CF3D1ED
:10997C00304601F093FA0DF107008DF8074000F026
:10998C0069FDD5F818340BB9029B6B609DF8070084
:10999C0000F084FDDAE7D5F8104454B90C4B0D48AF
:1099AC000D49C01AC008000440F0020000F062F833
:1099BC00CCE7236820469B689847E3681C68ECE773
:1099CC0000267DE74C1C0020C0D90100581C00204B
:1099DC00D4D90100FCD9010099DA01002DE9F74F27
:1099EC00224D04460F46924601A901221846D5F88D
:1099FC0008909B46FFF7ECFD20B3019E4FF000084A
:109A0C00B21CD84508EB020126D11948002100F000
:109A1C003DFF80F31000000440EA1440E400731C86
:109A2C0004F0380403EA090306EA090644F00104C9
:109A3C0005EB8303033644EA881444EA8724D86090
:109A4C0045F8264095F820341BB1FFF7B7FE0028E7
:109A5C00FBD103B0BDE8F08F09EA010105EB8101F0
:109A6C005AF82830CB6008F10108CAE74C1C0020DA
:109A7C006820002000231A46FFF7B0BF07B501236A
:109A8C00019201AAFFF7AAFF03B05DF804FB07B52A
:109A9C00CDE9002302236A46FFF7A0FF03B05DF86F
:109AAC0004FB000030B50F49D1F810240346002008
:109ABC00144634B9DC6820714AB9C1F810342260FC
:109ACC0030BDE4682579854206D02468F1E7D26878
:109ADC00116821601360F3E701300A28E8D14FF0D8
:109AEC00FF30EDE74C1C0020094A38B50123D2F8B1
:109AFC00104482F820341D4604B938BDE3685D710A
:109B0C00236820465B689847E3681C68F4E700BF4D
:109B1C004C1C002010B5037A052B0C460FD0437A51
:109B2C0023B1084A0849204600F05DFF074920464A
:109B3C0000F059FF2046BDE8104000F049BF002A54
:109B4C00F8D0F3E7BCDA0100C1DA0100E1DA010078
:109B5C00C38873B504460D4633B1144A00921449B8
:109B6C00144A284600F03FFF217A05291CD0637A5D
:109B7C004BB1A088FFF702FE0F4B104953F8202081
:109B8C00284600F030FF227A0D4BA08853F8226053
:109B9C000021FFF7D7FD0B4903463246284602B099
:109BAC00BDE8704000F01FBF02B070BDBCDA010010
:109BBC00CCDA0100C4DA010048DB0100C1DA010093
:109BCC006CDB0100E4DA01002DE9F04385B01F469F
:109BDC000C9D002395F80C902B7306460C46904672
:109BEC0029463846FFF7B4FFB8F1060F09D8DFE86D
:109BFC0008F00412181F283340003146284600F0A4
:109C0C00F2FE002229463846FFF784FF85F80C90B7
:109C1C0005B0BDE8F08322683146284600F0E3FE2B
:109C2C00EFE7D4E900233146284600F0DCFEE8E7F4
:109C3C00A36800933146D4E90023284600F0D3FEF4
:109C4C00DFE7E3680193A36800933146D4E900236E
:109C5C00284600F0C8FED4E723690293E368019319
:109C6C00A36800933146D4E90023284600F0BBFEDC
:109C7C00C7E76369039323690293E3680193A368BD
:109C8C0000933146D4E90023284600F0ACFEB8E737
:109C9C0008292DE9F74F80460E4617461C463CD83E
:109CAC0000251B7B2573214610460193FFF750FFBF
:109CBC00DFF884A0DFF884B0AE4231D918F8052063
:109CCC005946204600F08FFE0135082DF4D1194974
:109CDC00DFF86CA0DFF86CB0204600F084FE4FF08B
:109CEC0000094E4521D918F809507E2D03D8284675
:109CFC0003F0A6FD00B92E252A465946204600F051
:109D0C0072FE09F10109B9F1080FEAD101222146CD
:109D1C003846FFF7FFFE019B237303B0BDE8F08FBD
:109D2C005146204600F05FFECEE75146204600F03B
:109D3C005AFEE6E7F8DA0100F4DA0100EEDA010087
:109D4C00F6DA0100FADA0100C30710B507D4F023E4
:109D5C00054A4008145C23401943115410BD0901F5
:109D6C00C9B20F23F4E700BF3821002030B5094BEE
:109D7C001C78094B0246196800239C4201DC002028
:109D8C0030BD11F83350954201EBC300F8D00133CC
:109D9C00F3E700BF082100204821002070B50446DD
:109DAC000D46FFF7E3FF30B1436823B12946204647
:109DBC00BDE87040184770BD034B04481968002279
:109DCC00490800F056BA00BF0C21002010210020D9
:109DDC0010B5C0B2FFF7CAFF0446007801F0C8FC0A
:109DEC0063785A1E53425341834208D1044BD3E942
:109DFC000023134303D1BDE81040FFF7DDBF10BDB6
:109E0C003021002037B54308354AD35CC2074CBF1C
:109E1C001B0903F00F0304460D46042B35D8DFE86D
:109E2C0003F003252C383C0079B30121FFF78CFF9C
:109E3C0000230DF107008DF8073000F00BFB01201B
:109E4C00A4F12003C4F12001264A20FA01F100FA02
:109E5C0003F30B43A040D2E9004120430B43C2E97A
:109E6C0000039DF8070000F019FB0EE0002918BF55
:109E7C0002212046FFF768FF07E041B10321FFF7FD
:109E8C0063FF01212046FFF789FF03B030BD01219C
:109E9C00EFE70029F9D10421EBE709B10321E8E749
:109EAC00FFF752FF29462046FFF778FF0DF1070018
:109EBC008DF8075000F0CEFA0120A4F12003C4F174
:109ECC002001084A20FA01F100FA03F30B43A040E9
:109EDC00D2E9004124EA000021EA0303BFE700BFF6
:109EEC0038210020302100202DE9F041124E134F73
:109EFC0000243378A34208DC114BD3E9002313432D
:109F0C0018D0BDE8F041FFF757BF3D6805EBC4081A
:109F1C0015F8340001F02CFC98F801305A1E53420D
:109F2C005341181A4142414115F83400FFF76AFFBA
:109F3C000134DEE7BDE8F081082100204821002033
:109F4C0030210020092AF7B505460C4616463CD9A7
:109F5C0001F02AFBD8B11E4B1E481D601E4B1F4F33
:109F6C001C701F4B002110221E6003F097FC1D4B30
:109F7C0000200021C3E90001013CE4B20326FF2CC0
:109F8C000BD1194A1948002100F068F903E001F0DF
:109F9C00D3FA0028DFD003B0F0BD9DF8063015F8D9
:109FAC0034008DF8046005EBC40223F007038DF830
:109FBC00063001A993788DF805303A4601F0FEFA87
:109FCC00013CE4B20028DAD0E5E70720E3E700BF64
:109FDC00482100203821002008210020DD9D0100AF
:109FEC000C21002030210020F59E01008CDB0100AB
:109FFC0070B5084D084E00242B789C4201D30020EC
:10A00C0070BD3368012113F8340001F04BFB0134AF
:10A01C00F2E700BF082100204821002073B5114D44
:10A02C00114E00242B789C4214D300230DF1070011
:10A03C008DF8073000F00EFA0C4B00210020C3E91C
:10A04C0000019DF8070000F029FA094800F029F9F1
:10A05C0002B070BD336813F8340001F067FB0134B3
:10A06C00E0E700BF0821002048210020302100201B
:10A07C00102100201FB50021039001AA44F2010019
:10A08C00CDE9011100F004F805B05DF804FB000007
:10A09C0010B572B6FFF728FDFFF790FB0028FBD137
:10A0AC00104B114C1149E41AE408240444F001004B
:10A0BC00FFF7E0FC0E4B1B68DB0700D500BE0D491B
:10A0CC0044F00200FFF7D6FCBFF34F8F0A490B4B4D
:10A0DC00CA6802F4E0621343CB60BFF34F8F00BF3A
:10A0EC00FDE700BFD4D90100FCD9010090DB0100D1
:10A0FC00F0ED00E09CDB010000ED00E00400FA054F
:10A10C00D0E90223D1E90201994208BF90422CBF49
:10A11C00012000207047000008B50B4800F0F3FA4E
:10A12C000A4B0B49D3E900231218D1E9000143F182
:10A13C0000038B4208BF824203D212F1807243F1BA
:10A14C0000031046194608BDFC1A002050210020BF
:10A15C00C821002037B505460C460A4801A900F075
:10A16C0004FB60B10570446001A9064800F027FBB0
:10A17C0018B1054800F0CCFA002003B030BD042023
:10A18C00FBE700BFB4210020FC1A002038B5184BA7
:10A19C001B78044613B90025284638BD0028FAD090
:10A1AC00037F03F0FF05002BF5D0FFF7B5FFD4E9D3
:10A1BC000223994208BF904214D3236903B9237731
:10A1CC00D4E90530984721690029E4D0237F03F0B6
:10A1DC00FF05002BDFD0D4E90223521843F1000312
:10A1EC00C4E902230348214600F0BFFED4E700BFB8
:10A1FC0058210020B8DB010013B5114B1149186828
:10A20C00019008231048582200F09CFA044698B993
:10A21C000E4A0F4801A900F063F9044660B90C48D6
:10A22C00012100F053FA01230A4A0948194600F0AB
:10A23C00B5F9094B01221A70204602B010BD00BFBF
:10A24C00B4DB01005C210020B4210020C9A2010074
:10A25C00FC1A0020FFFF7F00582100203AB1036850
:10A26C005A614A1E51425141196100207047072022
:10A27C00704738B5037F04460D4683B98261FFF7FA
:10A28C004BFF2369401941F10001C4E9020103B1FC
:10A29C00256121460020BDE83840FFF75BBF002058
:10A2AC0038BD0023014603770120FFF753BF0000A0
:10A2BC00014800F028BA00BFFC1A00202DE9F04F2D
:10A2CC0085B0804600F00AFA40B15A4AD2E9003112
:10A2DC0013F1807341F10001C2E9003100214046C5
:10A2EC0000F00BFA38B1544E336823B13068FFF7E5
:10A2FC004DFF002333600121404600F0FEF920B1F0
:10A30C00FFF70AFF4D4BC3E900014D484A4F4D4E34
:10A31C00DFF8389103A900F062FA002845D1DFF884
:10A32C002491454EDFF828A1484600F034FE3368EE
:10A33C00002875D07BB13368D0E90201D3E9022340
:10A34C00994208BF90422DD233681B7F1BB13168F4
:10A35C00484600F00AFE484600F017FED0E902B36A
:10A36C0007460193FFF7D8FE019BBBEB000463EBA0
:10A37C000105012C75F1000345DBB4F5350F40D315
:10A38C00FFF796FF304A02444FF4960300215046E3
:10A39C0000F024F900283ED1336813B9404600F090
:10A3AC00F5F8376005B0BDE8F08F0378012B1DD0B0
:10A3BC00022B09D14FF0000A304600F0E6FD0028D0
:10A3CC0034D080F81CA0F7E73BB941680B7F23B968
:10A3DC0001230B77304600F0C8FD03A9184800F0A4
:10A3EC0029FA03A9164800F0FAF996E741683B6888
:10A3FC00994202D100233B60EFE7304600F0CEFDDE
:10A40C00EBE7BA68C0E70021504600F06CF938461B
:10A41C00FFF7BCFE01E00D28F9D00023336083E781
:10A42C00002BBFD1404600F0B5F8BBE7012389F8FB
:10A43C000030D2E750210020D0210020C82100207C
:10A44C00B4210020B8DB0100FFFFB400582100202C
:10A45C00FC1A002070B5EFF3108672B60C4A9468A3
:10A46C0001239CB993600B4B0B4DD3F88010294002
:10A47C001160C3F88050D3F8841051604FF0FF3254
:10A48C00C3F88420047006B962B670BD0370FAE795
:10A49C00D421002000E100E0FC06FFBD084B9A68C7
:10A4AC0010B55AB150B9EFF3108172B6054A1C6859
:10A4BC0014605C685460986001B962B610BD00BF4E
:10A4CC00D421002000E100E00346405882B028B1BE
:10A4DC0000225A505B580193019B012002B0704737
:10A4EC00F8B5224B4679224C43F82620214A224BC0
:10A4FC009B1A04EBC602DB0812791B04F70032B17D
:10A50C0043F002001D49FFF7B5FA0820F8BD0268B8
:10A51C000D88C2F8085590F9045002798978002DFD
:10A52C00ADBF05F1604CDFF85CC002F00F0E0CF50E
:10A53C00614C4FEA4111C9B2B4BF0CF80E108CF843
:10A54C0000136D090121DFF840C002F01F0201FA6F
:10A55C0002F24CF82520E21944F83600117143F050
:10A56C0003000749FFF786FA0020CFE7E821002017
:10A57C00E0210020D4D901000CDA0100C4DB010079
:10A58C00E6DB010014ED00E000E100E003680122CD
:10A59C001A607047036801225A60704773B501F165
:10A5AC005005AD000068ADB24FF480348C400026ED
:10A5BC00C0F80843C0F84843465101F5A871455905
:10A5CC00019522F07F42019D40F82120C0F84443C0
:10A5DC000BB1C0F8044302B070BD00002DE9F74F79
:10A5EC000D4622F07F4402684FF4803705F1500687
:10A5FC008F408046B60002EB8500C2F84873B6B2B5
:10A60C00C2F80873D2F8041599464FF0000BD0F835
:10A61C004035C0F8401542F806B05B1A92590092CA
:10A62C0023F07F43012B009A4FEA850A0CD1264B6D
:10A63C004FF4806043F001039847D8F8003043F89A
:10A64C0006B09B590193019BD8F80010D1F8046512
:10A65C00C1F84473A31B23F07F43012B1CD11A4B6D
:10A66C0005F5A875013443F0010341F825404FF47A
:10A67C0080609847D8F80030D3F804359E4209D151
:10A68C00D8F800300020C3F84473C3F8047303B047
:10A69C00BDE8F08F0D20FAE78A44C9F1FF13CAF820
:10A6AC004045D1F80405221A013A22F07F4203F505
:10A6BC007F439342EED3002AE2D10134CAF84045DD
:10A6CC00D1F804359842DAE700DC01000368022275
:10A6DC00C3F8442309B1C3F80423704700684FF44E
:10A6EC008271FFF7F1BE4FF4803303FA01F1036876
:10A6FC00C3F84813C3F80813704750318900006839
:10A70C0089B2FFF7E1BE0368D3F804057047000077
:10A71C0090F9043001215A0903F01F0301FA03F3E5
:10A72C004032024941F82230704700BF00E100E09E
:10A73C00024B034A1B681068184700BFE821002031
:10A74C00E021002030B5054659B1B2FBF3F403FB10
:10A75C001424A0B238B9C5E90010A860AA81EB8115
:10A76C0030BD0E20FCE70920FAE737B550E8013F71
:10A77C009DB2C48925448489A54228BF2D1B048918
:10A78C00A54202BFBFF32F8F002207E0C5EA0305E5
:10A79C0040E80154002CE9D14FF001028DF8032060
:10A7AC000193019B9DF803200B6002F0FF0322B183
:10A7BC000B880068184403B030BD1846FBE70A88C4
:10A7CC004B889A4209D150E8012FC2EA024240E874
:10A7DC000123002BF7D1012070470020704737B5BB
:10A7EC0050E8023F1FFAA3F5C488A54202BFBFF38D
:10A7FC002F8F00220DE0C48925448489A54228BFEF
:10A80C002D1BC3EA054540E80254002CE8D14FF05B
:10A81C0001028DF803200193019B9DF803200B602E
:10A82C0002F0FF0322B14B880068184403B030BD1E
:10A83C001846FBE70A884B889A4209D150E8022F48
:10A84C00C2EA224240E80223002BF7D101207047D4
:10A85C000020704701F01F024B090121914000EBD1
:10A86C00830000F01EB801F01F0301229A404B092F
:10A87C0000EB8300D14300F02CB84B0901F01F0111
:10A88C0050F82300C84000F00100704710B5034693
:10A89C0053E8000F0A4643E8002494F0000FF7D168
:10A8AC0010BD10B5034653E8002F42EA010043E8FF
:10A8BC00000494F0000FF6D110BD10B5034653E818
:10A8CC00000F00EA010243E8002494F0000FF6D1D7
:10A8DC0010BD10B5034653E8002F02EA010043E80F
:10A8EC00000494F0000FF6D110BD10B5034653E8E8
:10A8FC00002F02EB010043E8000494F0000FF6D1A6
:10A90C0010BD10B5034653E8002FA2EB010043E83D
:10A91C00000494F0000FF6D110BD0121FFF7C1BF68
:10A92C000021FFF7CABF10B590B1D0E9012301682F
:10A93C009B1ADBB20A60013BDBB2FF2B026802D12F
:10A94C000020107110BD11684C1C14600B70F2E7E4
:10A95C000E20F7E737B5054600240DF107008DF8FA
:10A96C000740FFF777FD2A686B68116899420ED98A
:10A97C00481E106011F8014CEB68298A01FB043465
:10A98C00AB6811791B1ADBB2994238BF13719DF871
:10A99C000700FFF783FD204603B030BD37B50546F1
:10A9AC0000230DF107000C468DF80730FFF752FD20
:10A9BC002A681368591C1160E968641A298AB4FB67
:10A9CC00F1F41C709DF80700FFF768FD03B030BD73
:10A9DC00826810B504462AB143690168006998473A
:10A9EC000023A36010BD0EB403B5039921B104ABD1
:10A9FC0001AA019300F076F802B05DF804EB03B005
:10AA0C0070470A2938B504460D4602D10D21FFF7CF
:10AA1C00F8FFA3682268591CA160D554D4E901320F
:10AA2C009A4204D32046BDE83840FFF7D1BF38BD69
:10AA3C002DE9F84F9846DDE90A43154682460F4644
:10AA4C000A464FF00109AA420FD2C14538BFC14690
:10AA5C0013F0010B01D16CB900240126B8F1010FE0
:10AA6C001BD908F1FF386E43F8E709F10109B2FB75
:10AA7C00F5F2E8E79B070ED5B8F1000F0CBF3026B6
:10AA8C002026A145E9D2013C31465046FFF7B9FFDB
:10AA9C00002CF6D1E0E72026F3E7B7FBF6F39D4256
:10AAAC00E1D9DFF83C80B7FBF6F3504618F80310F9
:10AABC0006FB1377FFF7A5FF3346AB42B6FBF5F663
:10AACC00F1D2BBF1000F02D00CB1A14501D3BDE80E
:10AADC00F88F20215046013CFFF793FFF4E700BFAD
:10AAEC0006DC01002DE9F74F05461746884600297C
:10AAFC0000F0428118F8011B49B92B7B002B00F0A8
:10AB0C003B81284603B0BDE8F04FFFF761BF252914
:10AB1C0040F0B780002698F800302D2B424608F103
:10AB2C00010823D0302B24D02B2B25D000242A2B0A
:10AB3C0002F1010123D13B681A1D1B683A601C44C9
:10AB4C000A4613782E2B26D101324FF0000A1046FC
:10AB5C0010F8011BA1F1300CBCF1090F1DD80A2310
:10AB6C0003FB0A13A3F1300A0246F0E746F0010694
:10AB7C00D1E746F00206CEE746F00406CBE711F823
:10AB8C00013CA3F130000928DBD80A2202FB043473
:10AB9C00303C0A46CBE74FF0000A12F8011B01F0DB
:10ABAC00FB0068289046F8D0782909D86F290CD872
:10ABBC00632962D022D8252963D0582900F08880D7
:10ABCC0098F80030002B95D197E770390829F7D801
:10ABDC0001A353F821F000BF5FAD0100CDAB010024
:10ABEC00CDAB0100EDAC0100CDAB0100CBAC010055
:10ABFC00CDAB0100CDAB0100DDAC0100642901D06F
:10AC0C006929DDD13A68D2F80090111D89EAE97200
:10AC1C003960A2EBE9724FF0010B092A35DCD34500
:10AC2C0038BFD3462CB1B9F1000F01DB720700D548
:10AC3C00013CB30702D5BAF1000F03D0F00701D4E1
:10AC4C004CBB0024B9F1000F2DDAC9F100092D21FC
:10AC5C002846FFF7D6FE06F00302022A04D1BAF109
:10AC6C00000F01D11CBB0024CDE9004653460A223B
:10AC7C0049462846FFF7DCFEA2E73B681A1D197807
:10AC8C003A602846FFF7BDFE9AE70A230BF1010B49
:10AC9C00B2FBF3F2C1E7A345D4D220212846013CF4
:10ACAC00FFF7AFFECCE77107D5D52B21D0E7A34535
:10ACBC00DAD230212846013CFFF7A3FED2E73968EF
:10ACCC00CDE900460A1D3A6053460A220968D0E7CE
:10ACDC0039680A1D3A60CDE9004653461022F5E763
:10ACEC003B681A1D3A6016F00106D3F8009028D183
:10ACFC00B9F1000F03D0484602F003FE0646B442F9
:10AD0C0000D904BB09F1FF3919F8011F00293FF4E0
:10AD1C0057AF2846FFF775FEF6E728460136FFF7D2
:10AD2C0070FE19F806100029F7D1A642BFF448AFFF
:10AD3C00002C3FF445AF20212846013CFFF761FE73
:10AD4C00F3E70026EDE720212846013CFFF759FEEA
:10AD5C00D5E73B681A1D3A60302128461C68FFF77E
:10AD6C0050FE78212846FFF74CFE00220823CDE93F
:10AD7C000032214610227CE703B0BDE8F08F00BF03
:10AD8C002DE9F84FB0F806A04579D2F800B09DF83F
:10AD9C0028900AFB05F5043D88460BEB0301A942FC
:10ADAC0003F1040488BFA5EB030BB4FBFAF60746CA
:10ADBC000AFB1644C2F800B04EB9AAEB04055D4577
:10ADCC0028BF5D46BBF1000F04D1BDE8F88F3F688A
:10ADDC00013EF1E7043408EB06003C442A46B9F185
:10ADEC00000F0DD02146ABEB050B02F02EFDDA4522
:10ADFC002E443F6855464FF0000428BF5D46E1E7FE
:10AE0C0001462046EFE7FFF78EBDF8B546790146BF
:10AE1C00721E0546002393422D6803D30024A642DC
:10AE2C0002D8F8BD0133F6E70F682846FFF7B6FDE8
:10AE3C0001343946F3E72DE9F843068ACD1C074661
:10AE4C00FFF788FD043E35440446B5FBF6F5F0B13A
:10AE5C004FF48073EDB28380C680013D076081465C
:10AE6C004FF00008A84512D23846FFF773FD06468E
:10AE7C0048B163790133637108F10108C9F8000026
:10AE8C0007608146EEE72046FFF7BFFF34462046B9
:10AE9C00BDE8F88301210430FFF727BD10B501216F
:10AEAC0004460430FFF72DFD10F0FF0F04D12046AF
:10AEBC00BDE81040FFF7A9BF10BD1FB503920022DB
:10AECC00009203AAFFF75CFF05B05DF804FB1FB509
:10AEDC0003920122009203AAFFF752FF05B05DF81E
:10AEEC0004FB41DF70470000064B10B500241C70BA
:10AEFC00054B1C60BFF35F8F0449054800F01FF839
:10AF0C00204610BDF4210020F821002020DC010097
:10AF1C00EC21002008B502F0D7FA18B1BDE80840C2
:10AF2C00FFF7DFBF20BF40BF20BF08BD83680022F2
:10AF3C005A60C3E904229A60DA601A6070470B68A1
:10AF4C004A684360934208BF0023016008BF436016
:10AF5C007047436843B10268916852680B4493424E
:10AF6C00436004BF00234360704770B544680646D5
:10AF7C000D46206818B1B3682946984718B923685C
:10AF8C002B60256070BD2468F3E74368186808B12E
:10AF9C0002681A60704743681868704743681868FD
:10AFAC0000B97047884203D102681A6001207047CB
:10AFBC0003460068F4E7000010B50D49A1F5947242
:10AFCC00914201D800200FE08C1AE30F03EBE4034D
:10AFDC005B1002EBC30452F83330834205D802D223
:10AFEC0004F10802ECE7606810BD2146E8E700BFF9
:10AFFC002CE1010008B5FFF7DFFF024B002808BF6A
:10B00C00184608BDEFDF01005C4B5D4A1B68C3F3BB
:10B01C00423313604FF080430022C3F80C21C3F875
:10B02C001021C3F838254FF0805203F54043D2F875
:10B03C000414C3F82015D2F80814C3F82415D2F858
:10B04C000C14C3F82815D2F81014C3F82C15D2F828
:10B05C001414C3F83015D2F81814C3F83415D2F8F8
:10B06C001C14C3F84015D2F82014C3F84415D2F8B8
:10B07C002414C3F84815D2F82814C3F84C15D2F888
:10B08C002C14C3F85015D2F83014C3F85415D2F858
:10B09C003414C3F86015D2F83814C3F86415D2F818
:10B0AC003C14C3F86815D2F84014C3F86C15D2F8E8
:10B0BC004424C3F87025334B1B68082B10D1324B3A
:10B0CC001B686BB9314B3249FB22C3F81825314B45
:10B0DC000A681B6822F00F0203F00F0313430B6086
:10B0EC004FF08043D3F80024D20744BF6FF0010225
:10B0FC00C3F80024264A136843F00F0313604FF083
:10B10C001023D3F80022002A03DBD3F80432002BDF
:10B11C002FDA214B0122C3F80425D3F80024002A8E
:10B12C00FBD04FF010221221C2F80012D3F80024E9
:10B13C00002AFBD04FF010231222C3F80422164B26
:10B14C001A46D3F800140029FBD00021C3F80415CB
:10B15C00D2F80034002BFBD0BFF34F8F0F49104BAC
:10B16C00CA6802F4E0621343CB60BFF34F8F00BF99
:10B17C00FDE70C4B0C4A1A60704700BF44020010EC
:10B18C003C050040300100103401001000F000407C
:10B19C00E40E00405802001000E0014000ED00E019
:10B1AC000400FA05041B00200090D003044B1A5C29
:10B1BC00012393404FF0A042C2F80C35704700BFFA
:10B1CC002CE10100044B1A5C012393404FF0A04288
:10B1DC00C2F80835704700BF2CE1010008B500200B
:10B1EC00FFF7F0FF0120FFF7EDFF0220FFF7EAFF6A
:10B1FC00BDE808400320FFF7E5BFC20708B50146CC
:10B20C000CD54FF0A0430322C3F83427C3F83827DA
:10B21C00C3F83C27C3F84027FFF7E0FF8B070AD59C
:10B22C004FF0A0430C22C3F82C27C3F83027C3F8E7
:10B23C006027C3F8642708BD38B5074C051E04F118
:10B24C00080318BF1C4623682BB11A6822605B6880
:10B25C0028469847F7E738BD0422002020B9054B53
:10B26C0001225A70FFF7E8BF012802D1014A907001
:10B27C00F8E77047FC21002020B9034B01225A70DB
:10B28C00FFF7DABF704700BFFC21002038B50B4C2C
:10B29C00237883B90A486360A3602361E36000F0FC
:10B2AC00C9F8054602F010F908B900F0CFF80123EF
:10B2BC002370284638BD8525FBE700BFFC21002004
:10B2CC0069B2010037B50B4C00230DF107008DF866
:10B2DC000730FFF7BFF8E368013BE360E56815B999
:10B2EC0000F0C6F8A5709DF80700FFF7D7F803B07B
:10B2FC0030BD00BFFC210020012813B508D0032865
:10B30C001CD018B9104B0122C3F8802002B010BD1C
:10B31C000E4C00230DF107008DF80730FFF79AF85B
:10B32C0023780BB9FFF7B2FFE3689DF807000133F0
:10B33C00E3600123A370FFF7B1F8E7E700F086F8AC
:10B34C00FFF7C0FFE2E700BF00E100E0FC210020B6
:10B35C001FB503788DF800304368019383688DF82E
:10B36C000830C368054A0393054B684653F82130EF
:10B37C0052F82110984705B05DF804FB102200200C
:10B38C00142200201FB503788DF800304368019318
:10B39C0083688DF80830C368054A0393054B6846EB
:10B3AC0053F8213052F82110984705B05DF804FB92
:10B3BC001022002014220020F0B5194B90F800C088
:10B3CC0091F81DE043F82C20164B16460A6943F8F9
:10B3DC002C20154B03F80CE00C4607460FCC89B01B
:10B3EC006D460FC594E80F0085E80F00CDF810C02E
:10B3FC00BEF1000F09D0002E0C4A694608BF324638
:10B40C00381D00F099FD09B0F0BD002E084A6946C0
:10B41C0008BF324607F10C0000F086FBF3E700BFD3
:10B42C001422002010220020182200205DB30100FD
:10B43C0091B30100044B0246187918B91A60012225
:10B44C001A717047852070471C220020074B1A6820
:10B45C00D2075FBFC02283F8002301221A604FF08D
:10B46C0080430122C3F81825704700BF00E100E0BB
:10B47C00044B01221A604FF08042D2F81834DB03DF
:10B48C00FBD470470C000040134B07B51A6862B12F
:10B49C00002018601B680093009B4FF08043012232
:10B4AC00C3F808230D4B1B6898470D4B1A6882B1E3
:10B4BC0000221A601B680193019B4FF0804302220B
:10B4CC00C3F80823054B1B68012003B05DF804EB9F
:10B4DC00184703B05DF804FB000100401C2200205B
:10B4EC000401004000F1804000F5C040002382B010
:10B4FC00036003680193019B02B07047800000F168
:10B50C00A040D0F8002722F44032C0F80027D0F831
:10B51C00003743EA0143C0F800377047054B4FF042
:10B52C00FF32072843F8202084BFC01880F8482039
:10B53C00704700BF2422002010B5174C94F85830E7
:10B54C0043BB04F130032021FF22013911F0FF012C
:10B55C0003F8012BF9D1C8B2FFF7E0FF01310C2938
:10B56C00F9D1042200210D4802F098F90C4BC022AD
:10B57C0083F8062340221A604FF4BE70FFF7B2FF27
:10B58C00084B4FF00042C3F80423012384F85830D1
:10B59C00002010BD0820FCE7242200207822002087
:10B5AC0000E100E000600040034B93F858000038C5
:10B5BC0018BF0120704700BF24220020F0B5374E81
:10B5CC000546301890F93000002864DA8878C0F30A
:10B5DC00400000280BBF082300230C240824A3429E
:10B5EC0001D10420F0BD56F8237001373FD17419F6
:10B5FC0046F8232084F8303010B9F21882F84850FD
:10B60C008A78500713D4D40733D5AA0002F1A0428C
:10B61C00D2F8000720F00200C2F800072048EA0820
:10B62C0005F007070124BC40875C3C4384548A78AE
:10B63C000C7812F0020025D09B0003F1804303F537
:10B64C00C0432A02D3F8101521F4473121F440717C
:10B65C00C3F810152404D3F8101502F4F85204F4AE
:10B66C00403422430A43C3F810250020BAE70133C3
:10B67C00B5E7487805F5E0724FF0A044800044F837
:10B68C002200CBE7083B334493F8502042EA841461
:10B69C0083F85040A6E70820A4E700BF242200202E
:10B6AC007822002038B51F4C251895F93020072A30
:10B6BC0016DD224492F848309B09032B0BD14FF036
:10B6CC00A043D3F81015C14001F001010231BDE8CF
:10B6DC003840FFF713BF012B0CBF02210321F6E703
:10B6EC00D3B2072B1CD8930003F1804303F5C0435E
:10B6FC00D3F8100540F00100C3F8100502F140002A
:10B70C00800080B2FFF7EEFE51B195F9303054F85D
:10B71C0023302BB1012303FA02F2034BC3F80423A9
:10B72C0038BD00BF24220020006000400E4B0344B3
:10B73C0093F93020072A02DD0021FFF7DFBED3B2D8
:10B74C00072B10D8930003F1804303F5C043D3F8C3
:10B75C00101521F00101C3F81015012303FA02F2B0
:10B76C00024BC3F8082370472422002000600040DD
:10B77C004FF0A043D3F8103523FA00F000F001008D
:10B78C00704700002DE9F04F87B000245A4D039408
:10B79C004FF48072012102F1804303F5C04390B253
:10B7AC001B68012B06D1D5F804330B4202D0FFF7EE
:10B7BC0099FE0C430432B2F5907F4FEA4101EAD175
:10B7CC004E4B1B68012B0AD14FF4BE70FFF78AFE5B
:10B7DC004FF0A04344F00044D3F81035039314F019
:10B7EC00FF0F1AD0464F00250126344210D0AB0073
:10B7FC0003F1804303F5C043D3F81005D3F81015BB
:10B80C0057F8253023B1C1F30141C0F30420984708
:10B81C000135082D4FEA4606E7D1002C65DA0021E8
:10B82C004FF0FF33CDE90413354D01274FF0000ADB
:10B83C00344ED1464FF0A04816F9013B5A1C45D066
:10B84C00C3F3C20106AA5018DCB210F8042C03F0A2
:10B85C003F0B03F0070307FA03F31A4236D005EB4C
:10B86C000B02A40992F9302055F8222052B9032C6E
:10B87C002CD10DF1100E1EF801C04CEA030C0EF881
:10B88C0001C001E0032CF4D00BF5E07110F80C0CA6
:10B89C0058F821101842C1F3014105D0022915D1E5
:10B8AC00032C0FD1214604E003290FD1032C09D11D
:10B8BC0002215846019209F10109FFF71FFE019A76
:10B8CC005FFA89F912B12146584690470AF1010AEC
:10B8DC00BAF1040FB0D1B9F1000F06D04FF0A0436C
:10B8EC00039AD3F81035934202D107B0BDE8F08F1C
:10B8FC000393049B059399E7006000407C61004032
:10B90C002422002074220020014B1B68184700BF22
:10B91C00802200200E4B984237B50C4602D00020F6
:10B92C0003B030BD00230DF107008DF80730FEF792
:10B93C0091FD084B1D7915B901221C601A719DF8F7
:10B94C000700FEF7ABFD002DE9D01120E8E700BFA2
:10B95C000020004080220020034B984201BF034B83
:10B96C0000221A601A7170470020004080220020CB
:10B97C000023435082B043580193019B02B070479F
:10B98C000A4610B54FF48E71FFF7F2FF136A9168F7
:10B99C00C95C136A01331362C0F81C1510BD8B69A6
:10B9AC000A4610B54FF4847123B9FFF7E1FFD0F8C4
:10B9BC00183510BDFFF7DCFF536AD168D0F81805B5
:10B9CC00C854536A01335362F3E700001FB50123D7
:10B9DC008DF80030044BCDE90110D3E90012684614
:10B9EC00904705B05DF804FB8822002030B54C4828
:10B9FC00D0F8043313F4007F85B005464DD0D0F851
:10BA0C002431002B49D04FF49271FFF7B1FF4FF462
:10BA1C000173C0F80833434B93F829200AB901226B
:10BA2C0042603F4902228DF80020D1F88024C1F8F1
:10BA3C00802403929A690292DA6801920022C3E987
:10BA4C0006226846D3E9001290473548D0F81C31DD
:10BA5C005BB134494A690B6A9A420A464AD991F851
:10BA6C002830002B46D1FFF78BFF2D48D0F84431FE
:10BA7C008BB14FF4A271FFF77BFF2A4B93F829206F
:10BA8C000AB1012202609A692AB10022586AD96867
:10BA9C009A61FFF79BFF05B030BDD5F804335B0707
:10BAAC00D3D5D5F80831002BCFD01E4C1C482146DD
:10BABC00FFF775FF636AA2699A422346C5D1E26912
:10BACC00E1684AB12369E3600023606AA261E36123
:10BADC006362FFF77BFFB8E794F829200AB90122CB
:10BAEC006A600F4A4FF40170C2F808030022586ACA
:10BAFC009A61EEE70A484FF48E71FFF739FF5369EC
:10BB0C00002BB2D051690291002391688DF800305E
:10BB1C00019153616846D2E900139847A5E700BF2D
:10BB2C0000200040882200202DE9F843574B05796E
:10BB3C0091462C2202FB0532064692F82A200C462E
:10BB4C009846002A40F09D8051490068FFF7E2FEBC
:10BB5C000746002840F0978021683368481C0BD0BA
:10BB6C004FF0A04001228A40C0F8082501F5E07290
:10BB7C004FF0030C40F822C06068421C1FBF00F558
:10BB8C00E0724FF0A04C4FF0000E4CF822E0A2698E
:10BB9C00C3F8242594F814C0627DBCF1010F4CEA63
:10BBAC000202C3F86C25C3F81405C3F80C151DD19B
:10BBBC00A1684A1C1FBF01F5E0724FF0A0404FF086
:10BBCC00000C40F822C0E268501C0BD04FF0A04C87
:10BBDC0001209040CCF8080502F5E0704FF0030E00
:10BBEC004CF820E0C3F80825C3F810152C236B4340
:10BBFC0008EB0302C2F80490226948F80320B9F15B
:10BC0C00000F2BD03068247F4FF48E71FFF7B0FEFD
:10BC1C0030684FF4A271FFF7ABFE32681D4BC2F8CF
:10BC2C000433110B42F30732002AA8BF02F1604023
:10BC3C004FEA4413BABF184801F00F0400F56140F5
:10BC4C00DBB2B4BF035580F8003301F01F010123B0
:10BC5C0003FA01F15209114B43F822103368042204
:10BC6C00C3F800252C2303FB05830022C3E906221D
:10BC7C0083F829205A61012283F82A203846BDE82E
:10BC8C00F8830827FAE71127F8E700BF882200207D
:10BC9C00F9B901008000020014ED00E000E100E0C1
:10BCAC00F8B5047900682C4D0023C0F800352C231E
:10BCBC0003FB04535B686BB1284BC0F8083340F3AB
:10BCCC000733C0F304315B0901228A402033244935
:10BCDC0041F82320D0F80C65D0F81415D0F80835AD
:10BCEC00D0F810254FF0FF37BE42C0F8147518BFBE
:10BCFC0006F5E076C0F80C75C0F80875C0F810753C
:10BD0C001EBF4FF0A0474FF0020C47F826C04E1C48
:10BD1C001FBF4FF0A04601F5E071022746F82170D5
:10BD2C00511C1FBF4FF0A04102F5E072022641F8F2
:10BD3C0022605A1C1FBF03F5E0734FF0A042022192
:10BD4C0042F82310FFF708FE2C2303FB04540023B6
:10BD5C0084F82A306360F8BD882200208402020037
:10BD6C0000E100E02DE9F047204F90F804904FF0EF
:10BD7C002C0808FB097405466669002E34D16261F3
:10BD8C000068A16026624FF48E7184F82860FFF77A
:10BD9C00EFFD2868012383602146FFF7F1FD6368FE
:10BDAC00A0468BB92868D4F814A0236A9A4511D8F8
:10BDBC002A68D2F81C31002BFBD00123D3602C2332
:10BDCC0003FB097300225A613046BDE8F08794F8F2
:10BDDC0028303BB9D0F81C31002BF8D04146FFF786
:10BDEC00CFFDE2E70F26EAE71126EDE788220020D7
:10BDFC000023435082B043580193019B02B070471B
:10BE0C001FB501238DF80030044BCDE90110D3E9A7
:10BE1C0000126846904705B05DF804FBB422002080
:10BE2C007FB5434AD2F82461002E60D010464FF4FF
:10BE3C009271FFF7DDFF02238DF80030D2F88034C9
:10BE4C00C2F880340393D2F83C350293394BDA684C
:10BE5C0001920022C3E906226846D3E900129047FA
:10BE6C003348D0F8443173B14FF4A271FFF7C0FFDF
:10BE7C00304B9A693AB10022C3E90622D968D0F84E
:10BE8C003C05FFF7BDFF2A48D0F82031ABB14FF489
:10BE9C009071FFF7ADFF0123C360264B5A6962B165
:10BEAC00D0F84C150291002299688DF80020019170
:10BEBC005A616846D3E9001290471D48D0F85831B2
:10BECC009BB14FF4AC71FFF793FF1A4B5A6962B1F7
:10BEDC00D0F84C150291002299688DF80020019140
:10BEEC005A616846D3E90012904704B070BDD2F88D
:10BEFC001031002BB4D04FF488711046FFF778FF47
:10BF0C000C4BD2F83C0599698842A9D1DC69D968F7
:10BF1C0064B1D2F8005225F02005C2F800521A691B
:10BF2C009C61DA60DE61FFF76BFF99E79C61FAE7D1
:10BF3C0000200040B42200202DE9F8435D4B067927
:10BF4C009146242202FB0632044692F820200D462C
:10BF5C009846002A40F0AA8057490068FFF7DAFC9F
:10BF6C000746002840F0A48029682368481C0BD0A1
:10BF7C004FF0A04001228A40C0F8082501F5E0727C
:10BF8C004FF0030C40F822C06868421C1FBF00F53C
:10BF9C00E0724FF0A04C4FF0000E4CF822E0AA6972
:10BFAC00C3F8242595F814C06A7DBCF1010F4CEA46
:10BFBC000202C3F86C25C3F80C15C3F814051DD187
:10BFCC00A9684A1C1FBF01F5E0724FF0A0404FF06A
:10BFDC00000C40F822C0EA68501C0BD04FF0A04C6B
:10BFEC0001209040CCF8080502F5E0704FF0030EEC
:10BFFC004CF820E0C3F80825C3F81015242373432C
:10C00C0008EB0302C2F804902A6948F80320B9F13E
:10C01C00000F3AD020682A7F4FF48871FFF7E8FEB2
:10C02C0020684FF49071FFF7E3FE20684FF4927193
:10C03C00FFF7DEFE20684FF4A271FFF7D9FE2068EF
:10C04C004FF4AC71FFF7D4FE23681C49C3F80413FA
:10C05C00190B43F30733002BAEBF03F1604001F023
:10C06C000F0517484FEA4212A8BF00F56140D2B243
:10C07C00B4BF425580F8002301F01F01012202FADF
:10C08C0001F15B090F4A42F8231023680822C3F818
:10C09C000025242303FB06830022C3E906225A61F0
:10C0AC00012283F820203846BDE8F8830827FAE7F8
:10C0BC001127F8E7B42200202DBE01001003420026
:10C0CC0014ED00E000E100E0F8B5374D04792423CD
:10C0DC0003FB045302465B6800686BB1334BC0F83A
:10C0EC00083340F30733C0F304365B090121B14038
:10C0FC0020332F4E46F82310D0F80032012623F0BF
:10C10C002003C0F800324FF4AC714660FFF770FEAC
:10C11C001068C660D0F85831002BFBD00023C0F853
:10C12C000035D0F80C65D0F81415D0F80835D0F8D7
:10C13C0010254FF0FF37BE42C0F80C7518BF06F53E
:10C14C00E076C0F81475C0F80875C0F810751EBFFD
:10C15C004FF0A0474FF0020C47F826C04E1C1FBFF3
:10C16C004FF0A04601F5E071022746F82170511CF2
:10C17C001FBF4FF0A04102F5E072022641F8226089
:10C18C005A1C1FBF03F5E0734FF0A042022142F886
:10C19C002310FFF7E1FB242303FB0454002384F852
:10C1AC0020306360F8BD00BFB422002010034200B1
:10C1BC0000E100E001F06043B3F1005F2DE9F041D4
:10C1CC00064638D11E4B0779242505FB07359846C2
:10C1DC006C69002C31D16A610068A9604FF49071D0
:10C1EC00FFF706FE4FF4AC713068FFF701FE3368C1
:10C1FC006A69A968C3F84415C3F8482501229A60F6
:10C20C006A68AAB9D3F82021D3F858411AB9002C7E
:10C21C00F8D00F2407E0002CFBD10122DA60D3F810
:10C22C005821002AFBD0242303FB078700237B61C2
:10C23C002046BDE8F0811024FAE71124F8E700BF8E
:10C24C00B422002072DF704773DF704776DF7047CF
:10C25C007ADF70477CDF70477FDF70478FDF704776
:10C26C00B1DF7047FDF706BF08B5064B0121187802
:10C27C00FFF7EAFF08B1FDF7FDFEBDE8084000201E
:10C28C00FEF794BF201B00200388212B13B5044616
:10C29C0054D007D8112B30D0132B47D0102B0CD0E7
:10C2AC0002B010BD522B51D0562B01D03B2BF7D1E5
:10C2BC00A0881321FFF7CAFF1AE0284B2848294908
:10C2CC00C01AC008000440F00300FDF7D3FB0120A6
:10C2DC00FEF76CFF0020FEF775FF234BA188234867
:10C2EC00198000F067FF08B1FDF7C4FEFDF780FE72
:10C2FC000028D5D0FDF7BEFED2E7184B18481C49D4
:10C30C00C01AC008000440F00300FDF7B3FB012085
:10C31C00FEF758FF144B4FF6FF721A80FDF77EFEA6
:10C32C0008B1FDF7A7FEFFF79FFFB9E70E48002302
:10C33C001A4685210088FFF78FFFD9E7002301A952
:10C34C008088ADF80430FFF789FFD1E70648002359
:10C35C001A4619460088FFF783FFC9E7D4D90100B4
:10C36C00FCD9010052E10100221B002040230020D7
:10C37C005CE1010008B503784BB9054B3B211888EB
:10C38C00FFF764FF18B1BDE80840FDF773BE08BDA8
:10C39C00221B00200B2810B50C461AD10F4B10484D
:10C3AC001049C01AC008000440F00300FDF762FBFE
:10C3BC000D4B0E491888224600F0DEFF30F00802C3
:10C3CC000BD043F20202904207D043F2014290425A
:10C3DC0003D0BDE81040FDF74DBE10BDD4D901000F
:10C3EC00FCD9010069E10100221B00202823002058
:10C3FC0010B50A4B0A4CE41AE408240444F0030474
:10C40C0002203AB1FEF7D2FE06492046BDE81040A4
:10C41C00FDF730BBFEF7D6FE0349F6E7D4D9010091
:10C42C00FCD9010083E1010094E10100FDF722BE7B
:10C43C0000B54FF48041A7B00020FDF765F908B1B5
:10C44C00FDF718FEFDF798F80120FEF7D6FEFDF774
:10C45C00D3FE08B1FDF70EFE6A4840F233320121DB
:10C46C00FDF770FD08B1FDF705FEFEF73DFD08B1C7
:10C47C00FDF700FE00F0EAFF08B1FDF7FBFD00231D
:10C48C0017A90120179301F069F808B1FDF7F2FD27
:10C49C0017A801F013F908B1FDF7ECFD11235A4868
:10C4AC008DF8203001F02DFA574982B208A8FFF719
:10C4BC00D1FE08B1FDF7DEFD0822002117A801F01E
:10C4CC00EDF9524A4FF0C87317A8CDE91723FFF7BF
:10C4DC00BFFE08B1FDF7CEFD4D48002100F095FDE3
:10C4EC0008B1FDF7C7FD002308934A484A4B179340
:10C4FC0017A900F04DFE08B1FDF7BCFD474B4848AD
:10C50C00089308A900F0CAFE08B1FDF7B3FD41F28B
:10C51C002353ADF80430424B424C9B7C8DF80630D3
:10C52C003C22002108A801F0B9F902238DF8203033
:10C53C003C2240F20163002117A8ADF8223001F033
:10C54C00ADF922460123ADF86C3052F8041B01AB57
:10C55C0008A81C9300F0F0F808B1FDF78BFD324AE7
:10C56C00A16817A800F0E8F808B1FDF783FD1822C0
:10C57C00002102A801F092F900230122ADF8143039
:10C58C0003934FF480738DF80820ADF81C302549C7
:10C59C002648402302AA0493FFF754FE08B1FDF786
:10C5AC0069FD1C22002117A801F078F900234FF433
:10C5BC00A022CDE91732ADF86A304FF4A0328DF8D5
:10C5CC006C301B4B19921C9303221A4B8DF868206C
:10C5DC0017A81D9300F078FB08B1FDF74BFD164B27
:10C5EC0016481749C01AC008000440F00300FDF7B4
:10C5FC0041FAFFF739FEFDF7E1F80028FBD1FEF711
:10C60C0089FCF8E7081B0020A6E101005000A000FF
:10C61C00182300204023002071C20100FDC301003B
:10C62C0028230020101B00201C1B0020201B002096
:10C63C0081C3010039C40100D4D90100FCD9010027
:10C64C00B4E101006DDF704779DF70477DDF704723
:10C65C0064DF70472DE9F04F85B000250E9CBDF8C6
:10C66C003CB0B4F800A00191074690461E46A9467E
:10C67C003A884A450DDC45B12388013BA3EB0A03FC
:10C68C009BB2FF2B3AD806F80A30002005B0BDE863
:10C69C00F08F7A6852F82900039000220DF10B01FB
:10C6AC0003A8FFF7D5FF0028F0D19DF80B204245D9
:10C6BC0021D12288002D14BF0020022002EB08019A
:10C6CC00014459451ADC3DB9013292B2019B2280DA
:10C6DC00B35422880132228022880DF10B0132449E
:10C6EC0003A8FFF7B5FF0028D0D121889DF80B20B7
:10C6FC000A442280012509F10109B9E70C20C5E79C
:10C70C002DE9F341089FBDF824801546CDE900784A
:10C71C00022204461E46FFF79DFF50B933461022F5
:10C72C0029462046CDE9087802B0BDE8F041FFF774
:10C73C0091BF02B0BDE8F0812DE9F04F00231788BE
:10C74C00138090F82D3085B006460D46144653B331
:10C75C00082F01D80C2027E102A8FFF773FF00284F
:10C76C0040F0228123880822EA54238801339BB2AB
:10C77C001B222380EA542088013080B220800622BC
:10C78C000DF10901284401F060F823889DF8082078
:10C79C0006339BB212F0FE0218BF01222380EA542A
:10C7AC00238801332380B378FBB123880433BB4245
:10C7BC00D0D802A8FFF748FF002840F0F580238866
:10C7CC000322EA54238801339BB219222380EA54B2
:10C7DC002388BDF8082001339BB2E9182380EA5462
:10C7EC00120A4A70238802332380F2789AB1238884
:10C7FC00D91CB942AED80221E954238801339BB22B
:10C80C0001212380E95423880B449BB22380EA54F2
:10C81C0023880B4423807268AAB12388D91CB9429F
:10C82C0098D8022192F90020E954238801339BB255
:10C83C000A212380E954238801339BB22380EA54D4
:10C84C002388013323803389002B40F0A180338A65
:10C85C005BB1CDE900472B460722032106F11000FE
:10C86C00FFF74EFF002840F09F80338B5BB1CDE982
:10C87C0000472B461522142106F11800FFF740FF44
:10C88C00002840F09180326A002A40F09080D6F85F
:10C89C002480B8F1000F30D0B8F804302188981CEF
:10C8AC008A1C0244BA423FF655AFFE283FF652AFFF
:10C8BC0003336B54238801339BB2FF222380EA5449
:10C8CC00238801339BB22380B8F80020EA54E9187E
:10C8DC00120A4A702088023080B22080B8F80420F6
:10C8EC005AB1D8F8081000296BD0284400F0ADFFDD
:10C8FC002388B8F804201344238096F82C30002B9E
:10C90C0040F09A80307800284ED03388012B58D0D4
:10C91C00228802F1020CBC453FF61CAF012805D160
:10C92C007378023313449F42FFF414AF023FBF1AD3
:10C93C00BFB202A905EB0C00ADF80870FFF786FE3C
:10C94C0090BB3178BDF80830022900F0BA807278BB
:10C95C009A4202D3BB4240F2B280012940F0B3802C
:10C96C00974293B2C0F0AF80ADF808300821BDF803
:10C97C000830FE2B3FF6EEAE22880133AB542288F2
:10C98C00013292B22280A9542288134423800BE0F6
:10C99C00CDE900472B460622022106F10800FFF7DD
:10C9AC00AFFE00283FF453AF05B0BDE8F08FB4F8EC
:10C9BC0000C00CF10603BB423FF6CCAE1188052932
:10C9CC0001D80720F0E76FF4486E01EB0E039BB221
:10C9DC004FF27D3E7345F4D95388052BF1D96FF492
:10C9EC004860181880B27045EBD94FF6FF70814241
:10C9FC0003D0834201D09942E3D8052305F80C30CB
:10CA0C00238801339BB212212380E95423880133FC
:10CA1C009BB223801188E954E818090A41702388D5
:10CA2C0002339BB223805288EA54E918120A4A70E6
:10CA3C002388023323802AE7B36A002BC1D04FF03E
:10CA4C0000094FF00C0A4FF0160B96F82C305FFAD9
:10CA5C0089F293427FF656AFB16A0AFB02F201EB00
:10CA6C000208B8F80430981CFE283FF673AE2088F4
:10CA7C0003332B54238801339BB2238005F803B076
:10CA8C00238801339BB223808A5AEA54E918120A8C
:10CA9C004A702088023080B22080B8F804205AB145
:10CAAC00D8F8081000298CD0284400F0CEFE23883A
:10CABC00B8F804201344238009F10109C5E70921C2
:10CACC0055E7BB42FBD9ADF808704FE775DF7047EF
:10CADC0076DF70477ADF70477BDF7047034B1A882D
:10CAEC0082420CBF18460020704700BF682300200C
:10CAFC00024B9B6903B11847704700BF4C230020C1
:10CB0C0073B585B22846FFF7E9FF044670B1164E9F
:10CB1C00027A337B9A420BD200F10A012846FFF7C6
:10CB2C00D5FFE8B1112801D0FFF7E2FF02B070BDCC
:10CB3C0000230372337C43B13B212846FFF7C8FF27
:10CB4C0030F0080301D0FFF7D3FF7369002BEDD051
:10CB5C0000228DF80420ADF8065001A89847E5E7AF
:10CB6C00237A01332372E1E74C23002013B50B46E3
:10CB7C00497A02460E4869B9D0E901101C7A002C9A
:10CB8C0018BF01465868FDF774FB08B1FFF7B0FFFA
:10CB9C0002B010BD002119724369002BF8D001219D
:10CBAC008DF80410ADF8062001A89847F0E700BFF7
:10CBBC004C2300204B8802889A4213D842889A4210
:10CBCC0010D380888A8840F2F313984294BF031ADA
:10CBDC00C31A934206D800F2F310904234BF0020DF
:10CBEC0001207047002070470388122B70B5014656
:10CBFC0059D004D8102B1ED0112B44D070BD502B03
:10CC0C00FCD12F4BC288DB899A42F7D1038A022BC5
:10CC1C00F4D186883046FFF761FF05460028EDD039
:10CC2C0001F1120000F03FF938BB6868FDF739FBE1
:10CC3C000028E3D009E0C37B012BDFD14FF6FF7056
:10CC4C00FFF74CFF054620B90420BDE87040FFF704
:10CC5C004FBF1C4A8E880680002303721368C0F8ED
:10CC6C000A305368C0F80E3010310A30FFF7A2FFBB
:10CC7C00134B6872DB89002BC0D129463046BDE8C6
:10CC8C007040FFF773BF8088FFF728FF0446002829
:10CC9C00B4D04068FDF705FB08B1FFF729FF4FF64C
:10CCAC00FF732380AAE786883046FFF717FF0546F7
:10CCBC000028A3D008310A30FFF77CFF6872DCE74C
:10CCCC004C2300207C230020F8B5064648B30546CB
:10CCDC000FCD154F3C460FC495E8070084E80700BC
:10CCEC003068124C3C60B0B1FFF7F4FEC0B932684A
:10CCFC0013682360536863600D480E4A4FF6FF7348
:10CD0C0003800D4B40F8043F0021FDF7A7FA0028E3
:10CD1C0018BF032004E02046FFF7DEFE0028EBD00E
:10CD2C00F8BD0E20FCE700BF4C2300207C23002024
:10CD3C00682300200DCB0100882300200AB1FDF7E9
:10CD4C0089BDFDF790BD73B50191019C06466CB190
:10CD5C0000252C46294601A8FDF78FFD18B106EBDE
:10CD6C00440301349D800135142DF3D130463460D9
:10CD7C0002B070BD2DE9F04703888488103B8CB05D
:10CD8C0005460A2B1FD8DFE803F0063F1E1E1E1EA9
:10CD9C001E1E1E604400314EB368DB430093716865
:10CDAC006846FDF796FD009901A8FFF7CCFF0DF141
:10CDBC0008094FF00008019B984507D3132C13D991
:10CDCC000420FDF757F90CB0BDE8F08739F802AB39
:10CDDC0000270137514606EB8700FDF744FD1E2F57
:10CDEC00F7D108F10108E6E71D482146FDF732FDB1
:10CDFC001C482146FDF72EFDEB7B012BE3D01A4896
:10CE0C002146FDF727FDDEE715482146FDF72BFDF2
:10CE1C00D9E7027A15483F2A4FEA1215214694BFEA
:10CE2C0000220122FFF78AFF022D94BF002201226B
:10CE3C000F482146FFF782FF012D0E4894BF0022B8
:10CE4C0001222146FFF77AFFBDE7037A002BBAD106
:10CE5C00427A0648C2F3C0022146F3E7A823002019
:10CE6C00B0230020AC230020B4230020C0230020DA
:10CE7C00BC230020B8230020AADF70470023013810
:10CE8C000B70042806D8DFE800F00306080A0C0033
:10CE9C0011230B7070472123FBE73123F9E7122391
:10CEAC00F7E72223F5E7007800F001007047F0B5B2
:10CEBC008B7891B0012B0C4638BF01238DF80E30C6
:10CECC0005460B88ADF80C30002116466846032247
:10CEDC0000F0E4FC607C6946FFF7D0FFA07C0DF10C
:10CEEC000101FFF7CBFFE27B237B217D43EAC203E9
:10CEFC00227C43EA02139DF80220002922F0190239
:10CF0C0003F0190314BF02210121134361F34203FF
:10CF1C001C22002109A88DF8023000F0BFFC637BB5
:10CF2C0013F0300F15D002AF03220021384600F069
:10CF3C00B5FCE07C0DF10901FFF7A0FF11238DF882
:10CF4C0008309DF80A300E97012262F342038DF8E7
:10CF5C000A30637B8DF824301422A37B8DF82530A6
:10CF6C00002104A800F09AFC03AB0493A388ADF84D
:10CF7C001C30A368CDF814D01BB1E288ADF8182092
:10CF8C000893A369002B31D001AF0322002138464E
:10CF9C0000F084FCA3691A88ADF82C205A88ADF8EF
:10CFAC002E205A680D97187B0A923946FFF766FFB8
:10CFBC00A3690DF10501587BFFF760FFA269917A17
:10CFCC00137A43EAC103D17A927B43EA01139DF8A9
:10CFDC000610002A03F0190321F0190114BF0222D4
:10CFEC0001220B4362F342038DF80630E36903B16F
:10CFFC000C93334604AA09A92846FFF73DFF11B04C
:10D00C00F0BDA5DF7047B5DF704750B14FF0171377
:10D01C0003601B2303711723C160C380836000204E
:10D02C0070470E207047000013B5034680880C46ED
:10D03C0090B91A883A2A64D010D8102A3AD0112AFA
:10D04C005BD0A37A43B1E1880020FFF7DAFF002818
:10D05C006FD14FF48073638102B010BD552AF0D1AB
:10D06C00DB88C988A072172B38BF17238B4228BFC7
:10D07C000B462381FFF7C7FF60B1FDF7BBFF354BB4
:10D08C003549024635481B1ADB081B0443F00100E6
:10D09C00FCF7F4FCE37A002BD3D1E368002BD0D05F
:10D0AC0040F6772200922289ADF80420694620468A
:10D0BC009847C6E7DB7B012B04BF0B88CB80C98864
:10D0CC0023898B42BDD20020FFF79BFF10B90123AF
:10D0DC00E372B6E7112802D10123A372B1E7FDF781
:10D0EC0089FF1C4B1E4902461C481B1ADB081B04FB
:10D0FC0043F00100FCF7C2FCA3E71723CB808B6045
:10D10C009FE75B89CA88934228BF1346172BCA68CE
:10D11C0038BF17230B814AB1C97A39B140F6772150
:10D12C000091ADF804306946204690470023638196
:10D13C0087E7112890D0FDF75DFF064B08490246A2
:10D14C0006481B1ADB081B0443F00100FCF796FC95
:10D15C0082E700BF1CDA0100FDE10100D4D9010017
:10D16C00CCE10100B0DF704766DF704710B50021DD
:10D17C0004464088FFF7F8FF034608B9237210BD38
:10D18C00112801D10123F9E76368BDE81040184765
:10D19C0060B159B10378DE2B0AD00B684360DE23F3
:10D1AC0003704FF6FF734380002070470E207047CA
:10D1BC000820704728B10378DE2B04D14180002071
:10D1CC0070470E20704708207047F0B5054685B0B3
:10D1DC000C46F1B1E8B10B78DE2B1AD182884B8862
:10D1EC009A4204D10B7A13B10846FFF7BFFF2B8884
:10D1FC00112B32D0512B0ED0012B0AD12B7A012BB3
:10D20C0007D1A9886288914203D123722046FFF787
:10D21C00ADFF05B0F0BDAE886388B342F9D1AF79EC
:10D22C00022FF6D1AD7B2B1F022BF2D8002110223E
:10D23C00684600F033FB052D14BF4FF4C073002378
:10D24C00694630468DF80070ADF80430FFF78AFF60
:10D25C000028DED063689847DBE76388AA889A4287
:10D26C0004BF4FF6FF736380D3E7A8DF7047AEDFD0
:10D27C00704762DF70470288502A10B40CD1C48802
:10D28C004A88944208D1028A012A05D14B691BB104
:10D29C00827C10BC8088184710BC7047F0B50B68B6
:10D2AC0043618FB0334B02AA044603F110071646B4
:10D2BC0018685968154603C50833BB422A46F7D18E
:10D2CC0004F112013046FFF7D4FF00284FD1A37CA4
:10D2DC008DF80630224641F2235301A90120ADF806
:10D2EC000430FFF7C2FF002841D10146202206A8D6
:10D2FC0000F0D4FA41F22453ADF81830A37C8DF829
:10D30C001A309DF82530224623F0120301254FF0E8
:10D31C00011643F0120332F80A0B079606A98DF892
:10D32C0025308DF829508DF82B50FFF7C0FDF0B942
:10D33C000146202206A800F0B1FA41F22553ADF8BF
:10D34C001830A37C8DF81A309DF8253007962246AC
:10D35C0023F00A0343F00A0332F8020B8DF8253050
:10D36C0006A98DF829508DF82A50FFF7A0FD0FB0B3
:10D37C00F0BD00BF39E2010070B588B00D468DF8E4
:10D38C0007201022044601260DEB02000021ADF807
:10D39C000E6000F083FA6B89ADF810300DF10703C5
:10D3AC00079304A90DF10E0320468DF81260069325
:10D3BC00FFF75DFF08B070BD10DF704713B5044672
:10D3CC0009496846FDF7BBFD019808B902B010BDCC
:10D3DC00D0E900312046984718B16846FDF7B9FDF1
:10D3EC00F2E71120F2E700BF58E2010013B5044642
:10D3FC0007496846FDF7A3FD019B0BB902B010BDB0
:10D40C002046D3E9002190476846FDF7A2FDF3E7DB
:10D41C0070E201000B4991F816335A09EC231341C1
:10D42C00DB0706D5084B9A683AB94FF480030B60BA
:10D43C00704742F20200FCF71DBE1A6842F48002EB
:10D44C001A60704700E100E0D4210020F7B5194FB5
:10D45C003C7864BB184E012520463570FFF7AEFFB3
:10D46C00112821D02046FFF7C1FF144B8DF8034043
:10D47C00186801900DF10300FCF7ECFF104901A8AE
:10D48C00FFF79AFF0446B0FA80F0400938709DF817
:10D49C000300FDF703F83CB90A4B34701C70FFF71E
:10D4AC00B9FF2846FFF7A2FF204603B0F0BD0824C1
:10D4BC00FAE700BF252400202424002051E20100BB
:10D4CC009DA0010026240020014B1878704700BF56
:10D4DC002524002007B508496846FDF730FD019B5F
:10D4EC0013B903B05DF804FBD3E9002090476846FC
:10D4FC00FDF72FFDF3E700BF64E20100FFF7EABF81
:10D50C0060DF704769DF704761DF704730B5114BE2
:10D51C001B7891B0E3B1104D34240DF1020103A836
:10D52C00ADF80240FFF7F0FF70B9294601A8FDF7EE
:10D53C0006FD029B002BF0D003A8D3E900219047F5
:10D54C0001A8FDF706FDF4E7052801D0FCF792FDD4
:10D55C0011B030BD27240020B4E4010030B50546DD
:10D56C0085B00C46002900F096804C4B0B600C22C9
:10D57C00002101A800F092F901238DF806302268F1
:10D58C008DF80450062301A92020ADF80830FFF7D0
:10D59C00B9FF60B1FDF72EFD414B424902464248AE
:10D5AC001B1ADB081B0443F00100FCF767FA0C2282
:10D5BC00002101A800F072F9012322688DF80530D2
:10D5CC0001A94020FFF79EFF60B1FDF713FD344B1E
:10D5DC003649024634481B1ADB081B0443F0010091
:10D5EC00FCF74CFA0C22002101A800F057F90A2391
:10D5FC0022688DF8043001A90120FFF783FF60B188
:10D60C00FDF7F8FC264B2A49024627481B1ADB0873
:10D61C001B0443F00100FCF731FA0C22002101A895
:10D62C0000F03CF94FF4B0632268019301A9A120EA
:10D63C00FFF768FF60B1FDF7DDFC194B1D49024691
:10D64C0019481B1ADB081B0443F00100FCF716FAFF
:10D65C000C22002101A800F021F99DF80430226869
:10D66C006FF3000301A9A0208DF80430FFF74AFFE7
:10D67C00034668B1FDF7BEFC094B0F4902460A4848
:10D68C001B1ADB081B0443F00100FCF7F7F900231D
:10D69C00184605B030BD0E23FAE700BFE01A002093
:10D6AC002CDA01007CE20100D4D90100C2E20100B5
:10D6BC000EE301005AE30100ABE30100F8B50646A6
:10D6CC000768FFF71DFF3368BB4205461DD9194893
:10D6DC00194C1A49241AE408240444F00204204684
:10D6EC00FCF7C8F9336816493A462046FCF7CFF9DF
:10D6FC004FF080533268D3F80C3112499B0203F17E
:10D70C0000539A1A2046FCF7B9F925B90E4B0122A1
:10D71C001A702846F8BD2846FDF76CFC064B0B49E1
:10D72C00024604481B1ADB081B0443F00100FCF7FB
:10D73C00A5F9EEE7D4D901002CDA0100FEE30100D3
:10D74C002DE401005EE401002724002088E40100A0
:10D75C004BDF70471FB50D4C01A8FFF7F9FF70B9EF
:10D76C00214602A8FDF7EBFB039B002BF4D001989C
:10D77C00D3E90021904702A8FDF7EBFBF4E705285D
:10D78C0001D0FCF777FC04B010BD00BFCCE4010065
:10D79C007F2805D8034B185C034B5B5C1840704723
:10D7AC0000207047E4E4010064E50100A0F161038E
:10D7BC00192B98BF20387047A0F14103192B98BF43
:10D7CC00203070477F2805D8034B185C034B5B5CFB
:10D7DC001840704700207047E4E4010064E5010044
:10D7EC00A0F16103192B98BF20387047A0F14103B9
:10D7FC00192B98BF203070477F299ABF01700120E8
:10D80C006FF02E0070475AB10A787F2A0AD800B1FF
:10D81C000260002119605960501A18BF012070472E
:10D82C00002070476FF02E007047000008B5034BC6
:10D83C005B689B681B68984708BD00BF241B0020D1
:10D84C0008B50921FFF7F2FF08BD844640EA010341
:10D85C0013F0030F18D18446202A0BD32DE9F007BF
:10D86C00B1E8F807A0E8F807A2F12002202AF7D2C5
:10D87C00BDE8F007042A07D351F8043B40F8043BF9
:10D88C00A2F10402042AF7D2002A05D011F8013BB8
:10D89C0000F8013B013AF9D1604670478446002AF2
:10D8AC002DD010F0030F04D000F8011B013A26D044
:10D8BC00F7E7C9B241EA012141EA0141202A12D31A
:10D8CC00A2F120022DE9F0030B460C460D460E4644
:10D8DC000F4688468946A0E8FA03203AFBD2BDE8F9
:10D8EC00F00320320BD0042A05D340F8041B043A71
:10D8FC0005D0042AF9D200F8011B013AFBD160468D
:10D90C00704700F1010110F0030F11D010F8012B3A
:10D91C00002A23D010F0030F0AD010F8012B002A94
:10D92C001CD010F0030F03D010F8012B002A15D0D7
:10D93C002DE970004FF001324FF0803350F8044B5A
:10D94C00A4EB020525EA04051D4000D1F6E7A0F181
:10D95C00040070BC10F8012B002AFBD1A0EB0100D5
:02D96C00704702
:08D9700085B201000000000077
:10D9780081CD01000000000035D0010018230020EF
:10D98800F5CB010000000000D7D1010040230020A2
:10D9980083D201002823002095C201000000000066
:08D9A80005B3010000000000BE
:10D9B00019D501000000000061D70100000000003F
:10D9C0007C1B0020441C00204C1C0020841B0020D9
:04D9D000180000003B
:10D9D40036E10100000000003CE10100000000000D
:10D9E40043E101000000000047E1010000000000E5
:10D9F4004CE1010000000000AADA0100000003036A
:10DA040080DB010000000000A9DB01000000000031
:10DA140030E10100000000002CE2010000000303DB
:10DA240049E2010000000303A5E401000000030330
:10DA3400C0E401000000030316DC01000000000044
:08DA44002CDC010000000000D1
:10DA4C007CDA01000000000088DA0100F41A0020E2
:10DA5C00FFFFFFFFFFFFFFFFFFFFFFFFFFFFFFFFCA
:10DA6C0000000000000000000000D60106010000CC
:10DA7C00ED940100519501008D9401007561727453
:10DA8C005F6C6F675F6261636B656E6400426163BC
:10DA9C006B656E647320666C757368656400617089
:10DAAC0070000000702000207F000000F02000209B
:10DABC001B5B306D002573001B5B313B33316D00FC
:10DACC0025734C6F67732064726F707065642028C7
:10DADC0025642925730D0A003C25733E2025733AD5
:10DAEC002000202530327800202020007C00256387
:10DAFC00001B5B313B33306D001B5B313B33326DB4
:10DB0C00001B5B313B33336D001B5B313B33346D9E
:10DB1C00001B5B313B33356D001B5B313B33366D8A
:10DB2C00001B5B313B33376D007761726E696E673A
:10DB3C0000696E666F00646562756700BCDA01008F
:10DB4C00FDDA0100C4DA010005DB01000DDB010088
:10DB5C0015DB01001DDB010025DB01002DDB0100C5
:10DB6C000000000096DB010035DB01003DDB01000D
:10DB7C0042DB01006170705F627574746F6E00003F
:10DB8C0010210020466174616C206572726F720006
:10DB9C0053797374656D2072657365740061707070
:10DBAC005F74696D657200000100060000000000E2
:10DBBC004C2100200DA1010052544320696E737456
:10DBCC00616E636520616C726561647920696E6950
:10DBDC007469616C697A65642E005254433A206909
:10DBEC006E697469616C697A65642E0000000000CE
:10DBFC00000000000338FDD8704730313233343523
:10DC0C00363738394142434445467077725F6D6709
:10DC1C006D74000078D9010078D90100040000006F
:10DC2C00736F72746C697374004E52465F53554334
:10DC3C0043455353004E52465F4552524F525F5329
:10DC4C0056435F48414E444C45525F4D49535349EE
:10DC5C004E47004E52465F4552524F525F534F460D
:10DC6C00544445564943455F4E4F545F454E4142DF
:10DC7C004C4544004E52465F4552524F525F494EFE
:10DC8C005445524E414C004E52465F4552524F52F3
:10DC9C005F4E4F5F4D454D004E52465F4552524FC1
:10DCAC00525F4E4F545F464F554E44004E52465FA6
:10DCBC004552524F525F4E4F545F535550504F5236
:10DCCC00544544004E52465F4552524F525F494EA6
:10DCDC0056414C49445F504152414D004E52465FB3
:10DCEC004552524F525F494E56414C49445F535432
:10DCFC00415445004E52465F4552524F525F494E79
:10DD0C0056414C49445F4C454E475448004E524690
:10DD1C005F4552524F525F494E56414C49445F4603
:10DD2C004C414753004E52465F4552524F525F4949
:10DD3C004E56414C49445F44415441004E52465F5B
:10DD4C004552524F525F444154415F53495A45002A
:10DD5C004E52465F4552524F525F54494D454F55B6
:10DD6C0054004E52465F4552524F525F4E554C4CEA
:10DD7C00004E52465F4552524F525F464F524249F7
:10DD8C004444454E004E52465F4552524F525F49F5
:10DD9C004E56414C49445F41444452004E52465FFA
:10DDAC004552524F525F42555359004E52465F45B1
:10DDBC0052524F525F434F4E4E5F434F554E54009D
:10DDCC004E52465F4552524F525F5245534F555239
:10DDDC00434553004E52465F4552524F525F4D4F92
:10DDEC0044554C455F4E4F545F494E495449414C44
:10DDFC00495A4544004E52465F4552524F525F4D70
:10DE0C00555445585F494E49545F4641494C454429
:10DE1C00004E52465F4552524F525F4D5554455835
:10DE2C005F4C4F434B5F4641494C4544004E524674
:10DE3C005F4552524F525F4D555445585F554E4CAD
:10DE4C004F434B5F4641494C4544004E52465F455B
:10DE5C0052524F525F4D555445585F434F4E445F9D
:10DE6C00494E49545F4641494C4544004E52465F29
:10DE7C004552524F525F4D4F44554C455F414C52A9
:10DE8C00454144595F494E495449414C495A4544CE
:10DE9C00004E52465F4552524F525F53544F5241BF
:10DEAC0047455F46554C4C004E52465F4552524FCB
:10DEBC00525F4150495F4E4F545F494D504C454D58
:10DECC00454E544544004E52465F4552524F525FA8
:10DEDC00464541545552455F4E4F545F454E414265
:10DEEC004C4544004E52465F4552524F525F494F8B
:10DEFC005F50454E44494E47004E52465F45525284
:10DF0C004F525F4452565F5457495F4552525F4FD0
:10DF1C0056455252554E004E52465F4552524F5244
:10DF2C005F4452565F5457495F4552525F414E41D0
:10DF3C00434B004E52465F4552524F525F4452562D
:10DF4C005F5457495F4552525F444E41434B004E1C
:10DF5C0052465F4552524F525F424C455F495053B7
:10DF6C00505F52585F504B545F5452554E4341547E
:10DF7C004544004E52465F4552524F525F424C450B
:10DF8C005F495053505F4348414E4E454C5F414CA6
:10DF9C0052454144595F455849535453004E5246DB
:10DFAC005F4552524F525F424C455F495053505F50
:10DFBC004C494E4B5F444953434F4E4E4543544599
:10DFCC0044004E52465F4552524F525F424C455FA1
:10DFDC00495053505F504545525F52454A45435452
:10DFEC00454400556E6B6E6F776E206572726F7262
:10DFFC0020636F64650000000000000035DC010048
:10E00C000100000041DC0100020000005FDC0100A7
:10E01C000300000080DC01000400000093DC010020
:10E02C0005000000A4DC010006000000B8DC0100C3
:10E03C0007000000D0DC010008000000E8DC010053
:10E04C000900000000DD01000A00000019DD0100DC
:10E05C000B00000031DD01000C00000048DD010068
:10E06C000D0000005CDD01000E0000006EDD010003
:10E07C000F0000007DDD01001000000091DD0100AB
:10E08C0011000000A8DD010012000000B7DD010046
:10E09C0013000000CCDD010080000000E0DD010079
:10E0AC008100000001DE0100820000001DDE010085
:10E0BC008300000039DE01008400000057DE0100FF
:10E0CC008500000078DE0100860000009DDE010066
:10E0DC0090000000B4DE010091000000D2DE0100CF
:10E0EC0092000000F0DE01000082000005DF01005C
:10E0FC000182000023DF0100028200003FDF0100EB
:10E10C00008400005BDF0100018400007FDF010060
:10E11C0002840000A9DF010003840000CEDF0100AF
:10E12C000D0E0F10636C6F636B00434C4F434B0031
:10E13C004750494F544500505253005541525400DA
:10E14C00554152544500436F6E6E656374656400AF
:10E15C00446973636F6E6E65637465640053656EBA
:10E16C006420627574746F6E2073746174652063BF
:10E17C0068616E67652E005265636569766564201B
:10E18C004C4544204F4E21005265636569766564A9
:10E19C00204C4544204F464621004E6F7264696303
:10E1AC005F426C696E6B7900426C696E6B792065AD
:10E1BC0078616D706C6520737461727465642E0087
:10E1CC0073645F626C655F67617474635F657863C9
:10E1DC0068616E67655F6D74755F72657175657387
:10E1EC007428292072657475726E65642025732EEF
:10E1FC000073645F626C655F67617474735F6578EC
:10E20C006368616E67655F6D74755F7265706C795C
:10E21C0028292072657475726E65642025732E0032
:10E22C006E72665F626C655F676174740023D1BC4B
:10E23C00EA5F782315DEEF1212000000006E7266A2
:10E24C005F7364680001000007000000C0D9010082
:10E25C00C0D9010008000000B0D90100C0D90100EC
:10E26C0008000000A8D90100B0D901000800000086
:10E27C0073645F626C655F6366675F73657428299E
:10E28C002072657475726E656420257320776865DD
:10E29C006E20617474656D7074696E6720746F2084
:10E2AC0073657420424C455F434F4E4E5F43464767
:10E2BC005F4741502E0073645F626C655F636667F5
:10E2CC005F73657428292072657475726E6564209D
:10E2DC002573207768656E20617474656D70746940
:10E2EC006E6720746F2073657420424C455F474104
:10E2FC00505F4346475F524F4C455F434F554E541A
:10E30C002E0073645F626C655F6366675F73657430
:10E31C0028292072657475726E65642025732077C8
:10E32C0068656E20617474656D7074696E672074B5
:10E33C006F2073657420424C455F434F4D4D4F4EDB
:10E34C005F4346475F56535F555549442E007364EF
:10E35C005F626C655F6366675F7365742829207202
:10E36C00657475726E6564202573207768656E2000
:10E37C00617474656D7074696E6720746F20736559
:10E38C007420424C455F47415454535F4346475FAA
:10E39C00415454525F5441425F53495A452E0073C5
:10E3AC00645F626C655F6366675F736574282920C0
:10E3BC0072657475726E6564202573207768656E5E
:10E3CC0020617474656D7074696E6720746F20734E
:10E3DC00657420424C455F47415454535F43464754
:10E3EC005F534552564943455F4348414E47454468
:10E3FC002E00496E73756666696369656E7420528A
:10E40C00414D20616C6C6F636174656420666F7242
:10E41C002074686520536F66744465766963652E55
:10E42C00004368616E6765207468652052414D2019
:10E43C007374617274206C6F636174696F6E2066A3
:10E44C00726F6D203078257820746F2030782578A5
:10E45C002E004D6178696D756D2052414D207369A8
:10E46C007A6520666F72206170706C696361746983
:10E47C006F6E20697320307825782E0073645F628C
:10E48C006C655F656E61626C6528292072657475B8
:10E49C00726E65642025732E006E72665F736468FD
:10E4AC005F626C650000000078D90100A8D90100FA
:10E4BC00080000006E72665F7364685F736F6300C0
:10E4CC0070D9010078D90100080000004300000059
:10E4DC00504F53495800000020202020202020209D
:10E4EC0020682828282820202020202020202020B8
:10E4FC002020202020202020481010101010101058
:10E50C00101010101010101084848484848484845F
:10E51C008484101010101010108181818181810170
:10E52C0001010101010101010101010101010101CF
:10E53C00010101101010101010828282828282025E
:10E54C00020202020202020202020202020202029F
:10E55C000202021010101020000703200417020101
:10E56C000857104080000000D8E40100DCE50100F1
:10E57C00F0E6010053756E004D6F6E00547565002A
:10E58C0057656400546875004672690053617400E5
:10E59C00000000004A616E00466562004D61720029
:10E5AC00417072004D6179004A756E004A756C00BD
:10E5BC0041756700536570004F6374004E6F7600B1
:10E5CC004465630000000000414D00504D00000008
:10E5DC0014E7010010E7010010E7010010E701004B
:10E5EC0010E7010010E7010010E7010010E701003F
:10E5FC0010E7010010E70100FFFFFFFFFFFFFFFF27
:10E60C00FFFFFFFFFFFF000050E6010080E5010067
:10E61C008CE60100A0E50100D4E5010034E6010020
:10E62C00E4E6010040E60100256D2F25642F2579D5
:10E63C00000000002561202562202565202554203E
:10E64C002559000053756E646179004D6F6E6461DD
:10E65C00790054756573646179005765646E6573F0
:10E66C0064617900546875727364617900467269EB
:10E67C006461790053617475726461790000000003
:10E68C004A616E7561727900466562727561727964
:10E69C00004D6172636800417072696C004D617964
:10E6AC00004A756E65004A756C7900417567757323
:10E6BC00740053657074656D626572004F63746F9E
:10E6CC00626572004E6F76656D62657200446563BB
:10E6DC00656D62657200000025483A254D3A255358
:10E6EC00000000009DD70100B9D70100C5D701007B
:10E6FC00D1D70100EDD70100F9D7010005D80100F1
:0AE70C0013D80100000000002E00E9
:10E718000000000000200040000000000020004031
:10E728000000000000000000FF0000000010014091
:10E73800110004000090D0030B000300A1C30100E6
:10E74800D82200201F000000F72200201F00000030
:10E75800FF00FFFF74E5010074E5010074E50100A6
:08E7680074E5010074E50100F5
:0400000310009375E1
:00000001FF
